{
  "contractName": "Election",
  "abi": [
    {
      "inputs": [],
      "stateMutability": "nonpayable",
      "type": "constructor"
    },
    {
      "anonymous": false,
      "inputs": [
        {
          "indexed": true,
          "internalType": "uint256",
          "name": "_candidate_Id",
          "type": "uint256"
        }
      ],
      "name": "votedEvent",
      "type": "event"
    },
    {
      "inputs": [
        {
          "internalType": "uint256",
          "name": "",
          "type": "uint256"
        }
      ],
      "name": "candidates",
      "outputs": [
        {
          "internalType": "uint256",
          "name": "id",
          "type": "uint256"
        },
        {
          "internalType": "string",
          "name": "name",
          "type": "string"
        },
        {
          "internalType": "uint256",
          "name": "voteCount",
          "type": "uint256"
        }
      ],
      "stateMutability": "view",
      "type": "function",
      "constant": true
    },
    {
      "inputs": [],
      "name": "candidates_Count",
      "outputs": [
        {
          "internalType": "uint256",
          "name": "",
          "type": "uint256"
        }
      ],
      "stateMutability": "view",
      "type": "function",
      "constant": true
    },
    {
      "inputs": [
        {
          "internalType": "address",
          "name": "",
          "type": "address"
        }
      ],
      "name": "voters",
      "outputs": [
        {
          "internalType": "bool",
          "name": "",
          "type": "bool"
        }
      ],
      "stateMutability": "view",
      "type": "function",
      "constant": true
    },
    {
      "inputs": [
        {
          "internalType": "uint256",
          "name": "_candidate_Id",
          "type": "uint256"
        }
      ],
      "name": "vote",
      "outputs": [],
      "stateMutability": "nonpayable",
      "type": "function"
    }
  ],
  "bytecode": "0x60806040523480156200001157600080fd5b50620000586040518060400160405280600f81526020017f4e6172656e6472612044204d6f64690000000000000000000000000000000000815250620001bc60201b60201c565b6200009e6040518060400160405280600c81526020017f526168756c2047616e6468690000000000000000000000000000000000000000815250620001bc60201b60201c565b620000e46040518060400160405280600e81526020017f416b68696c657368205961646176000000000000000000000000000000000000815250620001bc60201b60201c565b6200012a6040518060400160405280600e81526020017f4d616d74612042616e61726a6565000000000000000000000000000000000000815250620001bc60201b60201c565b620001706040518060400160405280600781526020017f4d61796176746900000000000000000000000000000000000000000000000000815250620001bc60201b60201c565b620001b66040518060400160405280600481526020017f4e4f544100000000000000000000000000000000000000000000000000000000815250620001bc60201b60201c565b62000618565b60026000815480929190620001d19062000274565b91905055506040518060600160405280600254815260200182815260200160008152506001600060025481526020019081526020016000206000820151816000015560208201518160010190816200022a919062000531565b506040820151816002015590505050565b7f4e487b7100000000000000000000000000000000000000000000000000000000600052601160045260246000fd5b6000819050919050565b600062000281826200026a565b91507fffffffffffffffffffffffffffffffffffffffffffffffffffffffffffffffff8203620002b657620002b56200023b565b5b600182019050919050565b600081519050919050565b7f4e487b7100000000000000000000000000000000000000000000000000000000600052604160045260246000fd5b7f4e487b7100000000000000000000000000000000000000000000000000000000600052602260045260246000fd5b600060028204905060018216806200034357607f821691505b602082108103620003595762000358620002fb565b5b50919050565b60008190508160005260206000209050919050565b60006020601f8301049050919050565b600082821b905092915050565b600060088302620003c37fffffffffffffffffffffffffffffffffffffffffffffffffffffffffffffffff8262000384565b620003cf868362000384565b95508019841693508086168417925050509392505050565b6000819050919050565b6000620004126200040c62000406846200026a565b620003e7565b6200026a565b9050919050565b6000819050919050565b6200042e83620003f1565b620004466200043d8262000419565b84845462000391565b825550505050565b600090565b6200045d6200044e565b6200046a81848462000423565b505050565b5b8181101562000492576200048660008262000453565b60018101905062000470565b5050565b601f821115620004e157620004ab816200035f565b620004b68462000374565b81016020851015620004c6578190505b620004de620004d58562000374565b8301826200046f565b50505b505050565b600082821c905092915050565b60006200050660001984600802620004e6565b1980831691505092915050565b6000620005218383620004f3565b9150826002028217905092915050565b6200053c82620002c1565b67ffffffffffffffff811115620005585762000557620002cc565b5b6200056482546200032a565b6200057182828562000496565b600060209050601f831160018114620005a9576000841562000594578287015190505b620005a0858262000513565b86555062000610565b601f198416620005b9866200035f565b60005b82811015620005e357848901518255600182019150602085019450602081019050620005bc565b86831015620006035784890151620005ff601f891682620004f3565b8355505b6001600288020188555050505b505050505050565b61062080620006286000396000f3fe608060405234801561001057600080fd5b506004361061004c5760003560e01c80630121b93f146100515780631efd32ec1461006d5780633477ee2e1461008b578063a3ec138d146100bd575b600080fd5b61006b60048036038101906100669190610324565b6100ed565b005b610075610211565b6040516100829190610360565b60405180910390f35b6100a560048036038101906100a09190610324565b610217565b6040516100b493929190610414565b60405180910390f35b6100d760048036038101906100d291906104b0565b6102c9565b6040516100e491906104f8565b60405180910390f35b6000803373ffffffffffffffffffffffffffffffffffffffff1673ffffffffffffffffffffffffffffffffffffffff16815260200190815260200160002060009054906101000a900460ff161561014357600080fd5b60008111801561015557506002548111155b61015e57600080fd5b60016000803373ffffffffffffffffffffffffffffffffffffffff1673ffffffffffffffffffffffffffffffffffffffff16815260200190815260200160002060006101000a81548160ff0219169083151502179055506001600082815260200190815260200160002060020160008154809291906101dc90610542565b9190505550807ffff3c900d938d21d0990d786e819f29b8d05c1ef587b462b939609625b684b1660405160405180910390a250565b60025481565b6001602052806000526040600020600091509050806000015490806001018054610240906105b9565b80601f016020809104026020016040519081016040528092919081815260200182805461026c906105b9565b80156102b95780601f1061028e576101008083540402835291602001916102b9565b820191906000526020600020905b81548152906001019060200180831161029c57829003601f168201915b5050505050908060020154905083565b60006020528060005260406000206000915054906101000a900460ff1681565b600080fd5b6000819050919050565b610301816102ee565b811461030c57600080fd5b50565b60008135905061031e816102f8565b92915050565b60006020828403121561033a576103396102e9565b5b60006103488482850161030f565b91505092915050565b61035a816102ee565b82525050565b60006020820190506103756000830184610351565b92915050565b600081519050919050565b600082825260208201905092915050565b60005b838110156103b557808201518184015260208101905061039a565b838111156103c4576000848401525b50505050565b6000601f19601f8301169050919050565b60006103e68261037b565b6103f08185610386565b9350610400818560208601610397565b610409816103ca565b840191505092915050565b60006060820190506104296000830186610351565b818103602083015261043b81856103db565b905061044a6040830184610351565b949350505050565b600073ffffffffffffffffffffffffffffffffffffffff82169050919050565b600061047d82610452565b9050919050565b61048d81610472565b811461049857600080fd5b50565b6000813590506104aa81610484565b92915050565b6000602082840312156104c6576104c56102e9565b5b60006104d48482850161049b565b91505092915050565b60008115159050919050565b6104f2816104dd565b82525050565b600060208201905061050d60008301846104e9565b92915050565b7f4e487b7100000000000000000000000000000000000000000000000000000000600052601160045260246000fd5b600061054d826102ee565b91507fffffffffffffffffffffffffffffffffffffffffffffffffffffffffffffffff820361057f5761057e610513565b5b600182019050919050565b7f4e487b7100000000000000000000000000000000000000000000000000000000600052602260045260246000fd5b600060028204905060018216806105d157607f821691505b6020821081036105e4576105e361058a565b5b5091905056fea264697066735822122047a8db6451bf70512138c32027aba12bc126ce26c6631b9a3ce2804e76b7293b64736f6c634300080f0033",
  "immutableReferences": {},
  "source": "// SPDX-License-Identifier: MIT\npragma solidity >=0.4.22 <0.9.0;\n\ncontract Election { \n    struct Candidate { \n        uint id; \n        string name; \n        uint voteCount; \n    } \n    \n    mapping(address => bool) public voters; \n    mapping(uint => Candidate) public candidates; \n    uint public candidates_Count; \n    event votedEvent ( uint indexed _candidate_Id ); \n    \n    constructor () public { \n        addCandidate(\"Narendra D Modi\"); \n        addCandidate(\"Rahul Gandhi\"); \n        addCandidate(\"Akhilesh Yadav\"); \n        addCandidate(\"Mamta Banarjee\"); \n        addCandidate(\"Mayavti\"); \n        addCandidate(\"NOTA\"); \n    } \n    \n    function addCandidate (string memory name) private { \n        candidates_Count ++; \n        candidates[candidates_Count] = Candidate(candidates_Count, name, 0); \n    } \n    \n    function vote (uint _candidate_Id) public { \n        require(!voters[msg.sender]); \n        require(_candidate_Id > 0 && _candidate_Id <= candidates_Count); \n        voters[msg.sender] = true; candidates[_candidate_Id].voteCount ++; \n        emit votedEvent(_candidate_Id); \n    } \n}",
  "sourcePath": "C:\\Users\\Harsha\\Downloads\\ISAA\\ISAA Project - 1\\Decentralised-Platform-for-Voting-in-Elections-Using-Ethereum\\contracts\\Election.sol",
  "compiler": {
    "name": "solc",
    "version": "0.8.15+commit.e14f2714.Emscripten.clang"
  },
  "schemaVersion": "3.4.8",
  "updatedAt": "2022-11-06T15:18:34.361Z",
  "networkType": "ethereum",
  "devdoc": {
    "kind": "dev",
    "methods": {},
    "version": 1
  },
  "userdoc": {
    "kind": "user",
    "methods": {},
    "version": 1
  }
}